{
  "_format": "hh-sol-artifact-1",
  "contractName": "TaskToDo",
  "sourceName": "contracts/TaskToDo.sol",
  "abi": [
    {
      "inputs": [],
      "stateMutability": "nonpayable",
      "type": "constructor"
    },
    {
      "inputs": [
        {
          "internalType": "string",
          "name": "_desc",
          "type": "string"
        }
      ],
      "name": "addTask",
      "outputs": [],
      "stateMutability": "nonpayable",
      "type": "function"
    },
    {
      "inputs": [],
      "name": "getAllTasks",
      "outputs": [
        {
          "components": [
            {
              "internalType": "string",
              "name": "desc",
              "type": "string"
            },
            {
              "internalType": "enum TaskToDo.TaskStatus",
              "name": "status",
              "type": "uint8"
            }
          ],
          "internalType": "struct TaskToDo.Task[]",
          "name": "",
          "type": "tuple[]"
        }
      ],
      "stateMutability": "view",
      "type": "function"
    },
    {
      "inputs": [
        {
          "internalType": "uint256",
          "name": "id",
          "type": "uint256"
        }
      ],
      "name": "getTask",
      "outputs": [
        {
          "internalType": "string",
          "name": "",
          "type": "string"
        },
        {
          "internalType": "enum TaskToDo.TaskStatus",
          "name": "",
          "type": "uint8"
        }
      ],
      "stateMutability": "view",
      "type": "function"
    },
    {
      "inputs": [],
      "name": "getTaskCount",
      "outputs": [
        {
          "internalType": "uint256",
          "name": "",
          "type": "uint256"
        }
      ],
      "stateMutability": "view",
      "type": "function"
    },
    {
      "inputs": [
        {
          "internalType": "uint256",
          "name": "id",
          "type": "uint256"
        }
      ],
      "name": "markAsFinished",
      "outputs": [],
      "stateMutability": "nonpayable",
      "type": "function"
    },
    {
      "inputs": [
        {
          "internalType": "uint256",
          "name": "",
          "type": "uint256"
        }
      ],
      "name": "tasks",
      "outputs": [
        {
          "internalType": "string",
          "name": "desc",
          "type": "string"
        },
        {
          "internalType": "enum TaskToDo.TaskStatus",
          "name": "status",
          "type": "uint8"
        }
      ],
      "stateMutability": "view",
      "type": "function"
    }
  ],
  "bytecode": "0x608060405234801561001057600080fd5b50336000806101000a81548173ffffffffffffffffffffffffffffffffffffffff021916908373ffffffffffffffffffffffffffffffffffffffff160217905550610de9806100606000396000f3fe608060405234801561001057600080fd5b50600436106100625760003560e01c80631d65e77e146100675780636723856214610098578063779900b4146100b45780638d977672146100d2578063b6a74cc914610103578063c17a340e1461011f575b600080fd5b610081600480360381019061007c91906107bc565b61013d565b60405161008f9291906108f9565b60405180910390f35b6100b260048036038101906100ad9190610a5e565b610275565b005b6100bc6103a8565b6040516100c99190610bff565b60405180910390f35b6100ec60048036038101906100e791906107bc565b6104d4565b6040516100fa9291906108f9565b60405180910390f35b61011d600480360381019061011891906107bc565b61059d565b005b6101276106c2565b6040516101349190610c30565b60405180910390f35b606060006001805490508310610188576040517f08c379a000000000000000000000000000000000000000000000000000000000815260040161017f90610c97565b60405180910390fd5b6001838154811061019c5761019b610cb7565b5b9060005260206000209060020201600001600184815481106101c1576101c0610cb7565b5b906000526020600020906002020160010160009054906101000a900460ff168180546101ec90610d15565b80601f016020809104026020016040519081016040528092919081815260200182805461021890610d15565b80156102655780601f1061023a57610100808354040283529160200191610265565b820191906000526020600020905b81548152906001019060200180831161024857829003601f168201915b5050505050915091509150915091565b60008054906101000a900473ffffffffffffffffffffffffffffffffffffffff1673ffffffffffffffffffffffffffffffffffffffff163373ffffffffffffffffffffffffffffffffffffffff1614610303576040517f08c379a00000000000000000000000000000000000000000000000000000000081526004016102fa90610d93565b60405180910390fd5b600160405180604001604052808381526020016000600181111561032a57610329610882565b5b815250908060018154018082558091505060019003906000526020600020906002020160009091909190915060008201518160000190805190602001906103729291906106cf565b5060208201518160010160006101000a81548160ff0219169083600181111561039e5761039d610882565b5b0217905550505050565b60606001805480602002602001604051908101604052809291908181526020016000905b828210156104cb57838290600052602060002090600202016040518060400160405290816000820180546103ff90610d15565b80601f016020809104026020016040519081016040528092919081815260200182805461042b90610d15565b80156104785780601f1061044d57610100808354040283529160200191610478565b820191906000526020600020905b81548152906001019060200180831161045b57829003601f168201915b505050505081526020016001820160009054906101000a900460ff1660018111156104a6576104a5610882565b5b60018111156104b8576104b7610882565b5b81525050815260200190600101906103cc565b50505050905090565b600181815481106104e457600080fd5b906000526020600020906002020160009150905080600001805461050790610d15565b80601f016020809104026020016040519081016040528092919081815260200182805461053390610d15565b80156105805780601f1061055557610100808354040283529160200191610580565b820191906000526020600020905b81548152906001019060200180831161056357829003601f168201915b5050505050908060010160009054906101000a900460ff16905082565b60008054906101000a900473ffffffffffffffffffffffffffffffffffffffff1673ffffffffffffffffffffffffffffffffffffffff163373ffffffffffffffffffffffffffffffffffffffff161461062b576040517f08c379a000000000000000000000000000000000000000000000000000000000815260040161062290610d93565b60405180910390fd5b6001805490508110610672576040517f08c379a000000000000000000000000000000000000000000000000000000000815260040161066990610c97565b60405180910390fd5b600180828154811061068757610686610cb7565b5b906000526020600020906002020160010160006101000a81548160ff021916908360018111156106ba576106b9610882565b5b021790555050565b6000600180549050905090565b8280546106db90610d15565b90600052602060002090601f0160209004810192826106fd5760008555610744565b82601f1061071657805160ff1916838001178555610744565b82800160010185558215610744579182015b82811115610743578251825591602001919060010190610728565b5b5090506107519190610755565b5090565b5b8082111561076e576000816000905550600101610756565b5090565b6000604051905090565b600080fd5b600080fd5b6000819050919050565b61079981610786565b81146107a457600080fd5b50565b6000813590506107b681610790565b92915050565b6000602082840312156107d2576107d161077c565b5b60006107e0848285016107a7565b91505092915050565b600081519050919050565b600082825260208201905092915050565b60005b83811015610823578082015181840152602081019050610808565b83811115610832576000848401525b50505050565b6000601f19601f8301169050919050565b6000610854826107e9565b61085e81856107f4565b935061086e818560208601610805565b61087781610838565b840191505092915050565b7f4e487b7100000000000000000000000000000000000000000000000000000000600052602160045260246000fd5b600281106108c2576108c1610882565b5b50565b60008190506108d3826108b1565b919050565b60006108e3826108c5565b9050919050565b6108f3816108d8565b82525050565b600060408201905081810360008301526109138185610849565b905061092260208301846108ea565b9392505050565b600080fd5b600080fd5b7f4e487b7100000000000000000000000000000000000000000000000000000000600052604160045260246000fd5b61096b82610838565b810181811067ffffffffffffffff8211171561098a57610989610933565b5b80604052505050565b600061099d610772565b90506109a98282610962565b919050565b600067ffffffffffffffff8211156109c9576109c8610933565b5b6109d282610838565b9050602081019050919050565b82818337600083830152505050565b6000610a016109fc846109ae565b610993565b905082815260208101848484011115610a1d57610a1c61092e565b5b610a288482856109df565b509392505050565b600082601f830112610a4557610a44610929565b5b8135610a558482602086016109ee565b91505092915050565b600060208284031215610a7457610a7361077c565b5b600082013567ffffffffffffffff811115610a9257610a91610781565b5b610a9e84828501610a30565b91505092915050565b600081519050919050565b600082825260208201905092915050565b6000819050602082019050919050565b600082825260208201905092915050565b6000610aef826107e9565b610af98185610ad3565b9350610b09818560208601610805565b610b1281610838565b840191505092915050565b610b26816108d8565b82525050565b60006040830160008301518482036000860152610b498282610ae4565b9150506020830151610b5e6020860182610b1d565b508091505092915050565b6000610b758383610b2c565b905092915050565b6000602082019050919050565b6000610b9582610aa7565b610b9f8185610ab2565b935083602082028501610bb185610ac3565b8060005b85811015610bed5784840389528151610bce8582610b69565b9450610bd983610b7d565b925060208a01995050600181019050610bb5565b50829750879550505050505092915050565b60006020820190508181036000830152610c198184610b8a565b905092915050565b610c2a81610786565b82525050565b6000602082019050610c456000830184610c21565b92915050565b7f4e6f207461736b20686173206265656e206d656e74696f6e6564000000000000600082015250565b6000610c81601a836107f4565b9150610c8c82610c4b565b602082019050919050565b60006020820190508181036000830152610cb081610c74565b9050919050565b7f4e487b7100000000000000000000000000000000000000000000000000000000600052603260045260246000fd5b7f4e487b7100000000000000000000000000000000000000000000000000000000600052602260045260246000fd5b60006002820490506001821680610d2d57607f821691505b60208210811415610d4157610d40610ce6565b5b50919050565b7f4e6f74206f776e65720000000000000000000000000000000000000000000000600082015250565b6000610d7d6009836107f4565b9150610d8882610d47565b602082019050919050565b60006020820190508181036000830152610dac81610d70565b905091905056fea264697066735822122088c8018accbfd2c32095a7d1013aa97ed6b7d591db093f218fb01f1b5b2cae3e64736f6c634300080b0033",
  "linkReferences": {},
  "deployedLinkReferences": {}
}